{
  "_format": "hh-sol-artifact-1",
  "contractName": "PendleCompoundV2YieldTokenHolder",
  "sourceName": "contracts/core/compoundV2/PendleCompoundV2YieldTokenHolder.sol",
  "abi": [
    {
      "inputs": [
        {
          "internalType": "address",
          "name": "_governanceManager",
          "type": "address"
        },
        {
          "internalType": "address",
          "name": "_forge",
          "type": "address"
        },
        {
          "internalType": "address",
          "name": "_yieldToken",
          "type": "address"
        },
        {
          "internalType": "address",
          "name": "_comptroller",
          "type": "address"
        },
        {
          "internalType": "uint256",
          "name": "_expiry",
          "type": "uint256"
        }
      ],
      "stateMutability": "nonpayable",
      "type": "constructor"
    },
    {
      "anonymous": false,
      "inputs": [
        {
          "indexed": false,
          "internalType": "uint256",
          "name": "amount",
          "type": "uint256"
        },
        {
          "indexed": false,
          "internalType": "address",
          "name": "sendTo",
          "type": "address"
        }
      ],
      "name": "EtherWithdraw",
      "type": "event"
    },
    {
      "anonymous": false,
      "inputs": [
        {
          "indexed": false,
          "internalType": "contract IERC20",
          "name": "token",
          "type": "address"
        },
        {
          "indexed": false,
          "internalType": "uint256",
          "name": "amount",
          "type": "uint256"
        },
        {
          "indexed": false,
          "internalType": "address",
          "name": "sendTo",
          "type": "address"
        }
      ],
      "name": "TokenWithdraw",
      "type": "event"
    },
    {
      "inputs": [
        {
          "internalType": "uint256",
          "name": "amount",
          "type": "uint256"
        }
      ],
      "name": "afterReceiveTokens",
      "outputs": [],
      "stateMutability": "nonpayable",
      "type": "function"
    },
    {
      "inputs": [],
      "name": "expiry",
      "outputs": [
        {
          "internalType": "uint256",
          "name": "",
          "type": "uint256"
        }
      ],
      "stateMutability": "view",
      "type": "function"
    },
    {
      "inputs": [],
      "name": "forge",
      "outputs": [
        {
          "internalType": "address",
          "name": "",
          "type": "address"
        }
      ],
      "stateMutability": "view",
      "type": "function"
    },
    {
      "inputs": [],
      "name": "governanceManager",
      "outputs": [
        {
          "internalType": "contract PendleGovernanceManager",
          "name": "",
          "type": "address"
        }
      ],
      "stateMutability": "view",
      "type": "function"
    },
    {
      "inputs": [
        {
          "internalType": "address",
          "name": "to",
          "type": "address"
        },
        {
          "internalType": "uint256",
          "name": "amount",
          "type": "uint256"
        },
        {
          "internalType": "uint256",
          "name": "minNYieldAfterPush",
          "type": "uint256"
        }
      ],
      "name": "pushYieldTokens",
      "outputs": [],
      "stateMutability": "nonpayable",
      "type": "function"
    },
    {
      "inputs": [],
      "name": "redeemRewards",
      "outputs": [],
      "stateMutability": "nonpayable",
      "type": "function"
    },
    {
      "inputs": [],
      "name": "rewardToken",
      "outputs": [
        {
          "internalType": "address",
          "name": "",
          "type": "address"
        }
      ],
      "stateMutability": "view",
      "type": "function"
    },
    {
      "inputs": [
        {
          "internalType": "address",
          "name": "",
          "type": "address"
        }
      ],
      "name": "setUpEmergencyMode",
      "outputs": [],
      "stateMutability": "pure",
      "type": "function"
    },
    {
      "inputs": [
        {
          "internalType": "address",
          "name": "spender",
          "type": "address"
        },
        {
          "internalType": "bool",
          "name": "",
          "type": "bool"
        }
      ],
      "name": "setUpEmergencyModeV2",
      "outputs": [],
      "stateMutability": "nonpayable",
      "type": "function"
    },
    {
      "inputs": [
        {
          "internalType": "uint256",
          "name": "amount",
          "type": "uint256"
        },
        {
          "internalType": "address payable",
          "name": "sendTo",
          "type": "address"
        }
      ],
      "name": "withdrawEther",
      "outputs": [],
      "stateMutability": "nonpayable",
      "type": "function"
    },
    {
      "inputs": [
        {
          "internalType": "contract IERC20",
          "name": "token",
          "type": "address"
        },
        {
          "internalType": "uint256",
          "name": "amount",
          "type": "uint256"
        },
        {
          "internalType": "address",
          "name": "sendTo",
          "type": "address"
        }
      ],
      "name": "withdrawToken",
      "outputs": [],
      "stateMutability": "nonpayable",
      "type": "function"
    },
    {
      "inputs": [],
      "name": "yieldToken",
      "outputs": [
        {
          "internalType": "address",
          "name": "",
          "type": "address"
        }
      ],
      "stateMutability": "view",
      "type": "function"
    }
  ],
  "bytecode": "0x6101006040523480156200001257600080fd5b506040516200180038038062001800833981016040819052620000359162000671565b84848483836001600160a01b03811662000085576040805162461bcd60e51b815260206004820152600c60248201526b5a45524f5f4144445245535360a01b604482015290519081900360640190fd5b60008054336001600160a01b031990911617815560609190911b6001600160601b0319166080526040805163f7c618c160e01b815290516001600160a01b0386169163f7c618c1916004808301926020929190829003018186803b158015620000ed57600080fd5b505afa15801562000102573d6000803e3d6000fd5b505050506040513d60208110156200011957600080fd5b5051604080516307a77c5360e11b815290519192506000916001600160a01b03871691630f4ef8a6916004808301926020929190829003018186803b1580156200016257600080fd5b505afa15801562000177573d6000803e3d6000fd5b505050506040513d60208110156200018e57600080fd5b5051606085811b6001600160601b031990811660a0529087901b1660c052600180546001600160a01b0319166001600160a01b0385169081179091556002859055909150620001ed908260001962000243602090811b6200082117901c565b50505050506001600160a01b03831615159050620002285760405162461bcd60e51b81526004016200021f90620006d7565b60405180910390fd5b5060601b6001600160601b03191660e05250620006fd915050565b801580620002cd575060408051636eb1769f60e11b81523060048201526001600160a01b03848116602483015291519185169163dd62ed3e91604480820192602092909190829003018186803b1580156200029d57600080fd5b505afa158015620002b2573d6000803e3d6000fd5b505050506040513d6020811015620002c957600080fd5b5051155b6200030a5760405162461bcd60e51b8152600401808060200182810382526036815260200180620017ca6036913960400191505060405180910390fd5b604080516001600160a01b038416602482015260448082018490528251808303909101815260649091019091526020810180516001600160e01b0390811663095ea7b360e01b17909152620003629185916200036716565b505050565b6000620003c3826040518060400160405280602081526020017f5361666545524332303a206c6f772d6c6576656c2063616c6c206661696c6564815250856001600160a01b03166200042360201b62000939179092919060201c565b8051909150156200036257808060200190516020811015620003e457600080fd5b5051620003625760405162461bcd60e51b815260040180806020018281038252602a815260200180620017a0602a913960400191505060405180910390fd5b60606200043484846000856200043e565b90505b9392505050565b606082471015620004815760405162461bcd60e51b81526004018080602001828103825260268152602001806200177a6026913960400191505060405180910390fd5b6200048c85620005a5565b620004de576040805162461bcd60e51b815260206004820152601d60248201527f416464726573733a2063616c6c20746f206e6f6e2d636f6e7472616374000000604482015290519081900360640190fd5b600080866001600160a01b031685876040518082805190602001908083835b602083106200051e5780518252601f199092019160209182019101620004fd565b6001836020036101000a03801982511681845116808217855250505050505090500191505060006040518083038185875af1925050503d806000811462000582576040519150601f19603f3d011682016040523d82523d6000602084013e62000587565b606091505b5090925090506200059a828286620005af565b979650505050505050565b803b15155b919050565b60608315620005c057508162000437565b825115620005d15782518084602001fd5b8160405162461bcd60e51b81526004018080602001828103825283818151815260200191508051906020019080838360005b838110156200061d57818101518382015260200162000603565b50505050905090810190601f1680156200064b5780820380516001836020036101000a031916815260200191505b509250505060405180910390fd5b80516001600160a01b0381168114620005aa57600080fd5b600080600080600060a0868803121562000689578081fd5b620006948662000659565b9450620006a46020870162000659565b9350620006b46040870162000659565b9250620006c46060870162000659565b9150608086015190509295509295909350565b6020808252600c908201526b5a45524f5f4144445245535360a01b604082015260600190565b60805160601c60a05160601c60c05160601c60e05160601c611013620007676000398061079d52508061018b528061034f52806103a05250806101f75280610373528061040352806104fa528061071e52806109e25250806106af528061095652506110136000f3fe608060405234801561001057600080fd5b50600436106100b45760003560e01c8063ce56c45411610071578063ce56c4541461012d578063d02fba5114610140578063d2e6d1c314610153578063e184c9be1461015b578063f0fc4ec114610170578063f7c618c114610178576100b4565b806303b7acaf146100b95780633ccdbb28146100ce5780636c6f4239146100e157806376d5de85146100ff57806391680e5f146101075780639cabec7b1461011a575b600080fd5b6100cc6100c7366004610db7565b610180565b005b6100cc6100dc366004610e27565b61023d565b6100e961034d565b6040516100f69190610ee7565b60405180910390f35b6100e9610371565b6100cc610115366004610df3565b610395565b6100cc610128366004610e68565b610527565b6100cc61013b366004610e80565b61052a565b6100cc61014e366004610d9b565b610669565b6100e96106ad565b6101636106d1565b6040516100f69190610f39565b6100cc6106d7565b6100e9610812565b336001600160a01b037f000000000000000000000000000000000000000000000000000000000000000016146101ea576040805162461bcd60e51b815260206004820152600a6024820152694f4e4c595f464f52474560b01b604482015290519081900360640190fd5b6102206001600160a01b037f00000000000000000000000000000000000000000000000000000000000000001683600019610821565b600154610239906001600160a01b031683600019610821565b5050565b610245610952565b6001600160a01b0316336001600160a01b03161461029c576040805162461bcd60e51b815260206004820152600f60248201526e4f4e4c595f474f5645524e414e434560881b604482015290519081900360640190fd5b6102a5836109de565b6102ea576040805162461bcd60e51b81526020600482015260116024820152701513d2d15397d393d517d0531313d5d151607a1b604482015290519081900360640190fd5b6102fe6001600160a01b0384168284610a36565b604080516001600160a01b0380861682526020820185905283168183015290517f72cb8a894ddb372ceec3d2a7648d86f17d5a15caae0e986c53109b8a9a9385e69181900360600190a1505050565b7f000000000000000000000000000000000000000000000000000000000000000081565b7f000000000000000000000000000000000000000000000000000000000000000081565b336001600160a01b037f000000000000000000000000000000000000000000000000000000000000000016146103ff576040805162461bcd60e51b815260206004820152600a6024820152694f4e4c595f464f52474560b01b604482015290519081900360640190fd5b60007f00000000000000000000000000000000000000000000000000000000000000006001600160a01b03166370a08231306040518263ffffffff1660e01b815260040180826001600160a01b0316815260200191505060206040518083038186803b15801561046e57600080fd5b505afa158015610482573d6000803e3d6000fd5b505050506040513d602081101561049857600080fd5b50519050816104a78285610a88565b10156104ed576040805162461bcd60e51b815260206004820152601060248201526f24a72b20a924a0a721a2afa2a92927a960811b604482015290519081900360640190fd5b6105216001600160a01b037f0000000000000000000000000000000000000000000000000000000000000000168585610a36565b50505050565b50565b610532610952565b6001600160a01b0316336001600160a01b031614610589576040805162461bcd60e51b815260206004820152600f60248201526e4f4e4c595f474f5645524e414e434560881b604482015290519081900360640190fd5b6040516000906001600160a01b0383169084908381818185875af1925050503d80600081146105d4576040519150601f19603f3d011682016040523d82523d6000602084013e6105d9565b606091505b5050905080610621576040805162461bcd60e51b815260206004820152600f60248201526e15d2551211149055d7d19052531151608a1b604482015290519081900360640190fd5b604080518481526001600160a01b038416602082015281517fec47e7ed86c86774d1a72c19f35c639911393fe7c1a34031fdbd260890da90de929181900390910190a1505050565b6040805162461bcd60e51b815260206004820152601460248201527311955390d51253d397d11154149150d25055115160621b604482015290519081900360640190fd5b7f000000000000000000000000000000000000000000000000000000000000000081565b60025481565b6040805160018082528183019092526000916020808301908036833750506040805160018082528183019092529293506000929150602080830190803683370190505090507f00000000000000000000000000000000000000000000000000000000000000008260008151811061074a57fe5b60200260200101906001600160a01b031690816001600160a01b031681525050308160008151811061077857fe5b6001600160a01b0392831660209182029290920101526040516334086fd360e11b81527f000000000000000000000000000000000000000000000000000000000000000090911690636810dfa6906107dc9084908690600090600190600401610efb565b600060405180830381600087803b1580156107f657600080fd5b505af115801561080a573d6000803e3d6000fd5b505050505050565b6001546001600160a01b031681565b8015806108a7575060408051636eb1769f60e11b81523060048201526001600160a01b03848116602483015291519185169163dd62ed3e91604480820192602092909190829003018186803b15801561087957600080fd5b505afa15801561088d573d6000803e3d6000fd5b505050506040513d60208110156108a357600080fd5b5051155b6108e25760405162461bcd60e51b8152600401808060200182810382526036815260200180610fa86036913960400191505060405180910390fd5b604080516001600160a01b038416602482015260448082018490528251808303909101815260649091019091526020810180516001600160e01b031663095ea7b360e01b179052610934908490610ae5565b505050565b60606109488484600085610b96565b90505b9392505050565b60007f00000000000000000000000000000000000000000000000000000000000000006001600160a01b0316635aa6e6756040518163ffffffff1660e01b815260040160206040518083038186803b1580156109ad57600080fd5b505afa1580156109c1573d6000803e3d6000fd5b505050506040513d60208110156109d757600080fd5b5051905090565b60007f00000000000000000000000000000000000000000000000000000000000000006001600160a01b0316826001600160a01b031614158015610a3057506001546001600160a01b03838116911614155b92915050565b604080516001600160a01b038416602482015260448082018490528251808303909101815260649091019091526020810180516001600160e01b031663a9059cbb60e01b179052610934908490610ae5565b600082821115610adf576040805162461bcd60e51b815260206004820152601e60248201527f536166654d6174683a207375627472616374696f6e206f766572666c6f770000604482015290519081900360640190fd5b50900390565b6000610b3a826040518060400160405280602081526020017f5361666545524332303a206c6f772d6c6576656c2063616c6c206661696c6564815250856001600160a01b03166109399092919063ffffffff16565b80519091501561093457808060200190516020811015610b5957600080fd5b50516109345760405162461bcd60e51b815260040180806020018281038252602a815260200180610f7e602a913960400191505060405180910390fd5b606082471015610bd75760405162461bcd60e51b8152600401808060200182810382526026815260200180610f586026913960400191505060405180910390fd5b610be085610cf1565b610c31576040805162461bcd60e51b815260206004820152601d60248201527f416464726573733a2063616c6c20746f206e6f6e2d636f6e7472616374000000604482015290519081900360640190fd5b600080866001600160a01b031685876040518082805190602001908083835b60208310610c6f5780518252601f199092019160209182019101610c50565b6001836020036101000a03801982511681845116808217855250505050505090500191505060006040518083038185875af1925050503d8060008114610cd1576040519150601f19603f3d011682016040523d82523d6000602084013e610cd6565b606091505b5091509150610ce6828286610cf7565b979650505050505050565b3b151590565b60608315610d0657508161094b565b825115610d165782518084602001fd5b8160405162461bcd60e51b81526004018080602001828103825283818151815260200191508051906020019080838360005b83811015610d60578181015183820152602001610d48565b50505050905090810190601f168015610d8d5780820380516001836020036101000a031916815260200191505b509250505060405180910390fd5b600060208284031215610dac578081fd5b813561094b81610f42565b60008060408385031215610dc9578081fd5b8235610dd481610f42565b915060208301358015158114610de8578182fd5b809150509250929050565b600080600060608486031215610e07578081fd5b8335610e1281610f42565b95602085013595506040909401359392505050565b600080600060608486031215610e3b578283fd5b8335610e4681610f42565b9250602084013591506040840135610e5d81610f42565b809150509250925092565b600060208284031215610e79578081fd5b5035919050565b60008060408385031215610e92578182fd5b823591506020830135610de881610f42565b6000815180845260208085019450808401835b83811015610edc5781516001600160a01b031687529582019590820190600101610eb7565b509495945050505050565b6001600160a01b0391909116815260200190565b600060808252610f0e6080830187610ea4565b8281036020840152610f208187610ea4565b9415156040840152505090151560609091015292915050565b90815260200190565b6001600160a01b038116811461052757600080fdfe416464726573733a20696e73756666696369656e742062616c616e636520666f722063616c6c5361666545524332303a204552433230206f7065726174696f6e20646964206e6f7420737563636565645361666545524332303a20617070726f76652066726f6d206e6f6e2d7a65726f20746f206e6f6e2d7a65726f20616c6c6f77616e6365a2646970667358221220d1f24143a482e6bd12334a0c45814412391d0cd4cb763880cbb05a0789dad55664736f6c63430007060033416464726573733a20696e73756666696369656e742062616c616e636520666f722063616c6c5361666545524332303a204552433230206f7065726174696f6e20646964206e6f7420737563636565645361666545524332303a20617070726f76652066726f6d206e6f6e2d7a65726f20746f206e6f6e2d7a65726f20616c6c6f77616e6365",
  "linkReferences": {},
  "deployedLinkReferences": {}
}