{
  "_format": "hh-sol-artifact-1",
  "contractName": "MockPendleAaveMarket",
  "sourceName": "contracts/mock/MockPendleAaveMarket.sol",
  "abi": [
    {
      "inputs": [
        {
          "internalType": "address",
          "name": "_governanceManager",
          "type": "address"
        },
        {
          "internalType": "address",
          "name": "_xyt",
          "type": "address"
        },
        {
          "internalType": "address",
          "name": "_token",
          "type": "address"
        }
      ],
      "stateMutability": "nonpayable",
      "type": "constructor"
    },
    {
      "anonymous": false,
      "inputs": [
        {
          "indexed": true,
          "internalType": "address",
          "name": "owner",
          "type": "address"
        },
        {
          "indexed": true,
          "internalType": "address",
          "name": "spender",
          "type": "address"
        },
        {
          "indexed": false,
          "internalType": "uint256",
          "name": "value",
          "type": "uint256"
        }
      ],
      "name": "Approval",
      "type": "event"
    },
    {
      "anonymous": false,
      "inputs": [
        {
          "indexed": false,
          "internalType": "uint256",
          "name": "amount",
          "type": "uint256"
        },
        {
          "indexed": false,
          "internalType": "address",
          "name": "sendTo",
          "type": "address"
        }
      ],
      "name": "EtherWithdraw",
      "type": "event"
    },
    {
      "anonymous": false,
      "inputs": [
        {
          "indexed": false,
          "internalType": "uint256",
          "name": "reserve0",
          "type": "uint256"
        },
        {
          "indexed": false,
          "internalType": "uint256",
          "name": "weight0",
          "type": "uint256"
        },
        {
          "indexed": false,
          "internalType": "uint256",
          "name": "reserve1",
          "type": "uint256"
        }
      ],
      "name": "Sync",
      "type": "event"
    },
    {
      "anonymous": false,
      "inputs": [
        {
          "indexed": false,
          "internalType": "contract IERC20",
          "name": "token",
          "type": "address"
        },
        {
          "indexed": false,
          "internalType": "uint256",
          "name": "amount",
          "type": "uint256"
        },
        {
          "indexed": false,
          "internalType": "address",
          "name": "sendTo",
          "type": "address"
        }
      ],
      "name": "TokenWithdraw",
      "type": "event"
    },
    {
      "anonymous": false,
      "inputs": [
        {
          "indexed": true,
          "internalType": "address",
          "name": "from",
          "type": "address"
        },
        {
          "indexed": true,
          "internalType": "address",
          "name": "to",
          "type": "address"
        },
        {
          "indexed": false,
          "internalType": "uint256",
          "name": "value",
          "type": "uint256"
        }
      ],
      "name": "Transfer",
      "type": "event"
    },
    {
      "inputs": [],
      "name": "DOMAIN_SEPARATOR",
      "outputs": [
        {
          "internalType": "bytes32",
          "name": "",
          "type": "bytes32"
        }
      ],
      "stateMutability": "view",
      "type": "function"
    },
    {
      "inputs": [],
      "name": "PERMIT_TYPEHASH",
      "outputs": [
        {
          "internalType": "bytes32",
          "name": "",
          "type": "bytes32"
        }
      ],
      "stateMutability": "view",
      "type": "function"
    },
    {
      "inputs": [
        {
          "internalType": "address",
          "name": "user",
          "type": "address"
        },
        {
          "internalType": "uint256",
          "name": "_desiredXytAmount",
          "type": "uint256"
        },
        {
          "internalType": "uint256",
          "name": "_desiredTokenAmount",
          "type": "uint256"
        },
        {
          "internalType": "uint256",
          "name": "_xytMinAmount",
          "type": "uint256"
        },
        {
          "internalType": "uint256",
          "name": "_tokenMinAmount",
          "type": "uint256"
        }
      ],
      "name": "addMarketLiquidityDual",
      "outputs": [
        {
          "components": [
            {
              "internalType": "uint256",
              "name": "amount",
              "type": "uint256"
            },
            {
              "internalType": "bool",
              "name": "isOut",
              "type": "bool"
            }
          ],
          "internalType": "struct PendingTransfer[2]",
          "name": "transfers",
          "type": "tuple[2]"
        },
        {
          "internalType": "uint256",
          "name": "lpOut",
          "type": "uint256"
        }
      ],
      "stateMutability": "nonpayable",
      "type": "function"
    },
    {
      "inputs": [
        {
          "internalType": "address",
          "name": "user",
          "type": "address"
        },
        {
          "internalType": "address",
          "name": "_inToken",
          "type": "address"
        },
        {
          "internalType": "uint256",
          "name": "_exactIn",
          "type": "uint256"
        },
        {
          "internalType": "uint256",
          "name": "_minOutLp",
          "type": "uint256"
        }
      ],
      "name": "addMarketLiquiditySingle",
      "outputs": [
        {
          "components": [
            {
              "internalType": "uint256",
              "name": "amount",
              "type": "uint256"
            },
            {
              "internalType": "bool",
              "name": "isOut",
              "type": "bool"
            }
          ],
          "internalType": "struct PendingTransfer[2]",
          "name": "transfers",
          "type": "tuple[2]"
        },
        {
          "internalType": "uint256",
          "name": "exactOutLp",
          "type": "uint256"
        }
      ],
      "stateMutability": "nonpayable",
      "type": "function"
    },
    {
      "inputs": [
        {
          "internalType": "address",
          "name": "owner",
          "type": "address"
        },
        {
          "internalType": "address",
          "name": "spender",
          "type": "address"
        }
      ],
      "name": "allowance",
      "outputs": [
        {
          "internalType": "uint256",
          "name": "",
          "type": "uint256"
        }
      ],
      "stateMutability": "view",
      "type": "function"
    },
    {
      "inputs": [
        {
          "internalType": "address",
          "name": "spender",
          "type": "address"
        },
        {
          "internalType": "uint256",
          "name": "amount",
          "type": "uint256"
        }
      ],
      "name": "approve",
      "outputs": [
        {
          "internalType": "bool",
          "name": "",
          "type": "bool"
        }
      ],
      "stateMutability": "nonpayable",
      "type": "function"
    },
    {
      "inputs": [
        {
          "internalType": "address",
          "name": "account",
          "type": "address"
        }
      ],
      "name": "balanceOf",
      "outputs": [
        {
          "internalType": "uint256",
          "name": "",
          "type": "uint256"
        }
      ],
      "stateMutability": "view",
      "type": "function"
    },
    {
      "inputs": [
        {
          "internalType": "address",
          "name": "user",
          "type": "address"
        },
        {
          "internalType": "uint256",
          "name": "initialXytLiquidity",
          "type": "uint256"
        },
        {
          "internalType": "uint256",
          "name": "initialTokenLiquidity",
          "type": "uint256"
        }
      ],
      "name": "bootstrap",
      "outputs": [
        {
          "components": [
            {
              "internalType": "uint256",
              "name": "amount",
              "type": "uint256"
            },
            {
              "internalType": "bool",
              "name": "isOut",
              "type": "bool"
            }
          ],
          "internalType": "struct PendingTransfer[2]",
          "name": "transfers",
          "type": "tuple[2]"
        },
        {
          "internalType": "uint256",
          "name": "exactOutLp",
          "type": "uint256"
        }
      ],
      "stateMutability": "nonpayable",
      "type": "function"
    },
    {
      "inputs": [],
      "name": "bootstrapped",
      "outputs": [
        {
          "internalType": "bool",
          "name": "",
          "type": "bool"
        }
      ],
      "stateMutability": "view",
      "type": "function"
    },
    {
      "inputs": [
        {
          "components": [
            {
              "internalType": "uint256",
              "name": "weight",
              "type": "uint256"
            },
            {
              "internalType": "uint256",
              "name": "balance",
              "type": "uint256"
            }
          ],
          "internalType": "struct TokenReserve",
          "name": "inTokenReserve",
          "type": "tuple"
        },
        {
          "components": [
            {
              "internalType": "uint256",
              "name": "weight",
              "type": "uint256"
            },
            {
              "internalType": "uint256",
              "name": "balance",
              "type": "uint256"
            }
          ],
          "internalType": "struct TokenReserve",
          "name": "outTokenReserve",
          "type": "tuple"
        },
        {
          "internalType": "uint256",
          "name": "exactOut",
          "type": "uint256"
        },
        {
          "internalType": "uint256",
          "name": "swapFee",
          "type": "uint256"
        }
      ],
      "name": "calcExactIn",
      "outputs": [
        {
          "internalType": "uint256",
          "name": "exactIn",
          "type": "uint256"
        }
      ],
      "stateMutability": "pure",
      "type": "function"
    },
    {
      "inputs": [
        {
          "components": [
            {
              "internalType": "uint256",
              "name": "weight",
              "type": "uint256"
            },
            {
              "internalType": "uint256",
              "name": "balance",
              "type": "uint256"
            }
          ],
          "internalType": "struct TokenReserve",
          "name": "inTokenReserve",
          "type": "tuple"
        },
        {
          "components": [
            {
              "internalType": "uint256",
              "name": "weight",
              "type": "uint256"
            },
            {
              "internalType": "uint256",
              "name": "balance",
              "type": "uint256"
            }
          ],
          "internalType": "struct TokenReserve",
          "name": "outTokenReserve",
          "type": "tuple"
        },
        {
          "internalType": "uint256",
          "name": "exactIn",
          "type": "uint256"
        },
        {
          "internalType": "uint256",
          "name": "swapFee",
          "type": "uint256"
        }
      ],
      "name": "calcExactOut",
      "outputs": [
        {
          "internalType": "uint256",
          "name": "exactOut",
          "type": "uint256"
        }
      ],
      "stateMutability": "pure",
      "type": "function"
    },
    {
      "inputs": [
        {
          "internalType": "uint256",
          "name": "inAmount",
          "type": "uint256"
        },
        {
          "components": [
            {
              "internalType": "uint256",
              "name": "weight",
              "type": "uint256"
            },
            {
              "internalType": "uint256",
              "name": "balance",
              "type": "uint256"
            }
          ],
          "internalType": "struct TokenReserve",
          "name": "inTokenReserve",
          "type": "tuple"
        },
        {
          "internalType": "uint256",
          "name": "swapFee",
          "type": "uint256"
        },
        {
          "internalType": "uint256",
          "name": "totalSupplyLp",
          "type": "uint256"
        }
      ],
      "name": "calcOutAmountLp",
      "outputs": [
        {
          "internalType": "uint256",
          "name": "exactOutLp",
          "type": "uint256"
        }
      ],
      "stateMutability": "pure",
      "type": "function"
    },
    {
      "inputs": [
        {
          "components": [
            {
              "internalType": "uint256",
              "name": "weight",
              "type": "uint256"
            },
            {
              "internalType": "uint256",
              "name": "balance",
              "type": "uint256"
            }
          ],
          "internalType": "struct TokenReserve",
          "name": "outTokenReserve",
          "type": "tuple"
        },
        {
          "internalType": "uint256",
          "name": "totalSupplyLp",
          "type": "uint256"
        },
        {
          "internalType": "uint256",
          "name": "inLp",
          "type": "uint256"
        },
        {
          "internalType": "uint256",
          "name": "swapFee",
          "type": "uint256"
        }
      ],
      "name": "calcOutAmountToken",
      "outputs": [
        {
          "internalType": "uint256",
          "name": "exactOutToken",
          "type": "uint256"
        }
      ],
      "stateMutability": "pure",
      "type": "function"
    },
    {
      "inputs": [],
      "name": "decimals",
      "outputs": [
        {
          "internalType": "uint8",
          "name": "",
          "type": "uint8"
        }
      ],
      "stateMutability": "view",
      "type": "function"
    },
    {
      "inputs": [
        {
          "internalType": "address",
          "name": "spender",
          "type": "address"
        },
        {
          "internalType": "uint256",
          "name": "subtractedValue",
          "type": "uint256"
        }
      ],
      "name": "decreaseAllowance",
      "outputs": [
        {
          "internalType": "bool",
          "name": "",
          "type": "bool"
        }
      ],
      "stateMutability": "nonpayable",
      "type": "function"
    },
    {
      "inputs": [],
      "name": "expiry",
      "outputs": [
        {
          "internalType": "uint256",
          "name": "",
          "type": "uint256"
        }
      ],
      "stateMutability": "view",
      "type": "function"
    },
    {
      "inputs": [],
      "name": "factoryId",
      "outputs": [
        {
          "internalType": "bytes32",
          "name": "",
          "type": "bytes32"
        }
      ],
      "stateMutability": "view",
      "type": "function"
    },
    {
      "inputs": [],
      "name": "getReserves",
      "outputs": [
        {
          "internalType": "uint256",
          "name": "xytBalance",
          "type": "uint256"
        },
        {
          "internalType": "uint256",
          "name": "xytWeight",
          "type": "uint256"
        },
        {
          "internalType": "uint256",
          "name": "tokenBalance",
          "type": "uint256"
        },
        {
          "internalType": "uint256",
          "name": "tokenWeight",
          "type": "uint256"
        },
        {
          "internalType": "uint256",
          "name": "currentBlock",
          "type": "uint256"
        }
      ],
      "stateMutability": "view",
      "type": "function"
    },
    {
      "inputs": [],
      "name": "governanceManager",
      "outputs": [
        {
          "internalType": "contract PendleGovernanceManager",
          "name": "",
          "type": "address"
        }
      ],
      "stateMutability": "view",
      "type": "function"
    },
    {
      "inputs": [
        {
          "internalType": "address",
          "name": "spender",
          "type": "address"
        },
        {
          "internalType": "uint256",
          "name": "addedValue",
          "type": "uint256"
        }
      ],
      "name": "increaseAllowance",
      "outputs": [
        {
          "internalType": "bool",
          "name": "",
          "type": "bool"
        }
      ],
      "stateMutability": "nonpayable",
      "type": "function"
    },
    {
      "inputs": [],
      "name": "lastCurveShiftBlock",
      "outputs": [
        {
          "internalType": "uint256",
          "name": "",
          "type": "uint256"
        }
      ],
      "stateMutability": "view",
      "type": "function"
    },
    {
      "inputs": [],
      "name": "lastNYield",
      "outputs": [
        {
          "internalType": "uint256",
          "name": "",
          "type": "uint256"
        }
      ],
      "stateMutability": "view",
      "type": "function"
    },
    {
      "inputs": [],
      "name": "lastParamK",
      "outputs": [
        {
          "internalType": "uint256",
          "name": "",
          "type": "uint256"
        }
      ],
      "stateMutability": "view",
      "type": "function"
    },
    {
      "inputs": [],
      "name": "lockStartTime",
      "outputs": [
        {
          "internalType": "uint256",
          "name": "",
          "type": "uint256"
        }
      ],
      "stateMutability": "view",
      "type": "function"
    },
    {
      "inputs": [],
      "name": "name",
      "outputs": [
        {
          "internalType": "string",
          "name": "",
          "type": "string"
        }
      ],
      "stateMutability": "view",
      "type": "function"
    },
    {
      "inputs": [
        {
          "internalType": "address",
          "name": "",
          "type": "address"
        }
      ],
      "name": "nonces",
      "outputs": [
        {
          "internalType": "uint256",
          "name": "",
          "type": "uint256"
        }
      ],
      "stateMutability": "view",
      "type": "function"
    },
    {
      "inputs": [],
      "name": "paramL",
      "outputs": [
        {
          "internalType": "uint256",
          "name": "",
          "type": "uint256"
        }
      ],
      "stateMutability": "view",
      "type": "function"
    },
    {
      "inputs": [
        {
          "internalType": "address",
          "name": "owner",
          "type": "address"
        },
        {
          "internalType": "address",
          "name": "spender",
          "type": "address"
        },
        {
          "internalType": "uint256",
          "name": "value",
          "type": "uint256"
        },
        {
          "internalType": "uint256",
          "name": "deadline",
          "type": "uint256"
        },
        {
          "internalType": "uint8",
          "name": "v",
          "type": "uint8"
        },
        {
          "internalType": "bytes32",
          "name": "r",
          "type": "bytes32"
        },
        {
          "internalType": "bytes32",
          "name": "s",
          "type": "bytes32"
        }
      ],
      "name": "permit",
      "outputs": [],
      "stateMutability": "nonpayable",
      "type": "function"
    },
    {
      "inputs": [
        {
          "internalType": "address",
          "name": "user",
          "type": "address"
        }
      ],
      "name": "redeemLpInterests",
      "outputs": [
        {
          "internalType": "uint256",
          "name": "interests",
          "type": "uint256"
        }
      ],
      "stateMutability": "nonpayable",
      "type": "function"
    },
    {
      "inputs": [
        {
          "internalType": "address",
          "name": "user",
          "type": "address"
        },
        {
          "internalType": "uint256",
          "name": "_inLp",
          "type": "uint256"
        },
        {
          "internalType": "uint256",
          "name": "_minOutXyt",
          "type": "uint256"
        },
        {
          "internalType": "uint256",
          "name": "_minOutToken",
          "type": "uint256"
        }
      ],
      "name": "removeMarketLiquidityDual",
      "outputs": [
        {
          "components": [
            {
              "internalType": "uint256",
              "name": "amount",
              "type": "uint256"
            },
            {
              "internalType": "bool",
              "name": "isOut",
              "type": "bool"
            }
          ],
          "internalType": "struct PendingTransfer[2]",
          "name": "transfers",
          "type": "tuple[2]"
        }
      ],
      "stateMutability": "nonpayable",
      "type": "function"
    },
    {
      "inputs": [
        {
          "internalType": "address",
          "name": "user",
          "type": "address"
        },
        {
          "internalType": "address",
          "name": "_outToken",
          "type": "address"
        },
        {
          "internalType": "uint256",
          "name": "_inLp",
          "type": "uint256"
        },
        {
          "internalType": "uint256",
          "name": "_minOutAmountToken",
          "type": "uint256"
        }
      ],
      "name": "removeMarketLiquiditySingle",
      "outputs": [
        {
          "components": [
            {
              "internalType": "uint256",
              "name": "amount",
              "type": "uint256"
            },
            {
              "internalType": "bool",
              "name": "isOut",
              "type": "bool"
            }
          ],
          "internalType": "struct PendingTransfer[2]",
          "name": "transfers",
          "type": "tuple[2]"
        }
      ],
      "stateMutability": "nonpayable",
      "type": "function"
    },
    {
      "inputs": [],
      "name": "router",
      "outputs": [
        {
          "internalType": "contract IPendleRouter",
          "name": "",
          "type": "address"
        }
      ],
      "stateMutability": "view",
      "type": "function"
    },
    {
      "inputs": [
        {
          "internalType": "address",
          "name": "spender",
          "type": "address"
        }
      ],
      "name": "setUpEmergencyMode",
      "outputs": [],
      "stateMutability": "nonpayable",
      "type": "function"
    },
    {
      "inputs": [],
      "name": "start",
      "outputs": [
        {
          "internalType": "uint256",
          "name": "",
          "type": "uint256"
        }
      ],
      "stateMutability": "view",
      "type": "function"
    },
    {
      "inputs": [
        {
          "internalType": "address",
          "name": "inToken",
          "type": "address"
        },
        {
          "internalType": "uint256",
          "name": "inAmount",
          "type": "uint256"
        },
        {
          "internalType": "address",
          "name": "outToken",
          "type": "address"
        },
        {
          "internalType": "uint256",
          "name": "minOutAmount",
          "type": "uint256"
        }
      ],
      "name": "swapExactIn",
      "outputs": [
        {
          "internalType": "uint256",
          "name": "outAmount",
          "type": "uint256"
        },
        {
          "components": [
            {
              "internalType": "uint256",
              "name": "amount",
              "type": "uint256"
            },
            {
              "internalType": "bool",
              "name": "isOut",
              "type": "bool"
            }
          ],
          "internalType": "struct PendingTransfer[2]",
          "name": "transfers",
          "type": "tuple[2]"
        }
      ],
      "stateMutability": "nonpayable",
      "type": "function"
    },
    {
      "inputs": [
        {
          "internalType": "address",
          "name": "inToken",
          "type": "address"
        },
        {
          "internalType": "uint256",
          "name": "maxInAmount",
          "type": "uint256"
        },
        {
          "internalType": "address",
          "name": "outToken",
          "type": "address"
        },
        {
          "internalType": "uint256",
          "name": "outAmount",
          "type": "uint256"
        }
      ],
      "name": "swapExactOut",
      "outputs": [
        {
          "internalType": "uint256",
          "name": "inAmount",
          "type": "uint256"
        },
        {
          "components": [
            {
              "internalType": "uint256",
              "name": "amount",
              "type": "uint256"
            },
            {
              "internalType": "bool",
              "name": "isOut",
              "type": "bool"
            }
          ],
          "internalType": "struct PendingTransfer[2]",
          "name": "transfers",
          "type": "tuple[2]"
        }
      ],
      "stateMutability": "nonpayable",
      "type": "function"
    },
    {
      "inputs": [],
      "name": "symbol",
      "outputs": [
        {
          "internalType": "string",
          "name": "",
          "type": "string"
        }
      ],
      "stateMutability": "view",
      "type": "function"
    },
    {
      "inputs": [],
      "name": "token",
      "outputs": [
        {
          "internalType": "address",
          "name": "",
          "type": "address"
        }
      ],
      "stateMutability": "view",
      "type": "function"
    },
    {
      "inputs": [],
      "name": "totalSupply",
      "outputs": [
        {
          "internalType": "uint256",
          "name": "",
          "type": "uint256"
        }
      ],
      "stateMutability": "view",
      "type": "function"
    },
    {
      "inputs": [
        {
          "internalType": "address",
          "name": "recipient",
          "type": "address"
        },
        {
          "internalType": "uint256",
          "name": "amount",
          "type": "uint256"
        }
      ],
      "name": "transfer",
      "outputs": [
        {
          "internalType": "bool",
          "name": "",
          "type": "bool"
        }
      ],
      "stateMutability": "nonpayable",
      "type": "function"
    },
    {
      "inputs": [
        {
          "internalType": "address",
          "name": "sender",
          "type": "address"
        },
        {
          "internalType": "address",
          "name": "recipient",
          "type": "address"
        },
        {
          "internalType": "uint256",
          "name": "amount",
          "type": "uint256"
        }
      ],
      "name": "transferFrom",
      "outputs": [
        {
          "internalType": "bool",
          "name": "",
          "type": "bool"
        }
      ],
      "stateMutability": "nonpayable",
      "type": "function"
    },
    {
      "inputs": [
        {
          "internalType": "uint256",
          "name": "amount",
          "type": "uint256"
        },
        {
          "internalType": "address payable",
          "name": "sendTo",
          "type": "address"
        }
      ],
      "name": "withdrawEther",
      "outputs": [],
      "stateMutability": "nonpayable",
      "type": "function"
    },
    {
      "inputs": [
        {
          "internalType": "contract IERC20",
          "name": "token",
          "type": "address"
        },
        {
          "internalType": "uint256",
          "name": "amount",
          "type": "uint256"
        },
        {
          "internalType": "address",
          "name": "sendTo",
          "type": "address"
        }
      ],
      "name": "withdrawToken",
      "outputs": [],
      "stateMutability": "nonpayable",
      "type": "function"
    },
    {
      "inputs": [],
      "name": "xyt",
      "outputs": [
        {
          "internalType": "address",
          "name": "",
          "type": "address"
        }
      ],
      "stateMutability": "view",
      "type": "function"
    }
  ],
  "bytecode": "0x61026060405265010000000000600f553480156200001c57600080fd5b5060405162005d9338038062005d938339810160408190526200003f9162000f0d565b82828282828282826001600160a01b0316636c6f42396040518163ffffffff1660e01b815260040160206040518083038186803b1580156200008057600080fd5b505afa15801562000095573d6000803e3d6000fd5b505050506040513d601f19601f82011682018060405250810190620000bb919062000eee565b6001600160a01b031663f887ea406040518163ffffffff1660e01b815260040160206040518083038186803b158015620000f457600080fd5b505afa15801562000109573d6000803e3d6000fd5b505050506040513d601f19601f820116820180604052508101906200012f919062000eee565b6040518060400160405280600d81526020016c14195b991b194813585c9ad95d609a1b8152506040518060400160405280600a8152602001691411539113114b53141560b21b815250601242876001600160a01b031663e184c9be6040518163ffffffff1660e01b815260040160206040518083038186803b158015620001b557600080fd5b505afa158015620001ca573d6000803e3d6000fd5b505050506040513d601f19601f82011682018060405250810190620001f0919062000f60565b8451859085906200020990600390602085019062000e42565b5080516200021f90600490602084019062000e42565b50506005805460ff19166012179055506200023a8362000a1a565b608091825260a09081526001600160601b0319606096871b1660c0908152855160209687012060408051808201825260018152603160f81b9089015280517f8b73c3c69bb8fe3d512ecc4cf759cc79239f7b179b0ffacaa9a75d522b39400f818a0152808201929092527fc89efdaa54c0f20c7adf612882df0950f5a951637e0307cdcb4c672f298b8bc6988201989098524693810193909352308383015286518084039092018252919091019094525050815191012060e0526001600160a01b0381166200033f576040805162461bcd60e51b815260206004820152600c60248201526b5a45524f5f4144445245535360a01b604482015290519081900360640190fd5b60078054336001600160a01b031990911617905560601b6001600160601b031916610100526001600160a01b038216620003965760405162461bcd60e51b81526004016200038d9062000fa5565b60405180910390fd5b6001600160a01b038116620003bf5760405162461bcd60e51b81526004016200038d9062000fa5565b816001600160a01b031663ddf0fa836040518163ffffffff1660e01b815260040160206040518083038186803b158015620003f957600080fd5b505afa1580156200040e573d6000803e3d6000fd5b505050506040513d601f19601f8201168201806040525081019062000434919062000eee565b6001600160a01b0316816001600160a01b03161415620004685760405162461bcd60e51b81526004016200038d9062000f79565b6000826001600160a01b0316636c6f42396040518163ffffffff1660e01b815260040160206040518083038186803b158015620004a457600080fd5b505afa158015620004b9573d6000803e3d6000fd5b505050506040513d601f19601f82011682018060405250810190620004df919062000eee565b6001600160601b0319606082811b82166101405285811b82166101805284901b16610160526040805163beb9a97360e01b815290519192506001600160a01b0383169163beb9a97391600480820192602092909190829003018186803b1580156200054957600080fd5b505afa1580156200055e573d6000803e3d6000fd5b505050506040513d601f19601f8201168201806040525081019062000584919062000f60565b6101a08181525050826001600160a01b0316637158da7c6040518163ffffffff1660e01b815260040160206040518083038186803b158015620005c657600080fd5b505afa158015620005db573d6000803e3d6000fd5b505050506040513d601f19601f8201168201806040525081019062000601919062000eee565b6001600160a01b03166101c0816001600160a01b031660601b81525050826001600160a01b031663ddf0fa836040518163ffffffff1660e01b815260040160206040518083038186803b1580156200065857600080fd5b505afa1580156200066d573d6000803e3d6000fd5b505050506040513d601f19601f8201168201806040525081019062000693919062000eee565b6001600160a01b03166101e0816001600160a01b031660601b81525050806001600160a01b03166373d4a13a6040518163ffffffff1660e01b815260040160206040518083038186803b158015620006ea57600080fd5b505afa158015620006ff573d6000803e3d6000fd5b505050506040513d601f19601f8201168201806040525081019062000725919062000eee565b6001600160a01b0316610200816001600160a01b031660601b81525050806001600160a01b03166373d4a13a6040518163ffffffff1660e01b815260040160206040518083038186803b1580156200077c57600080fd5b505afa15801562000791573d6000803e3d6000fd5b505050506040513d601f19601f82011682018060405250810190620007b7919062000eee565b6001600160a01b031663be66c60f6040518163ffffffff1660e01b815260040160206040518083038186803b158015620007f057600080fd5b505afa15801562000805573d6000803e3d6000fd5b505050506040513d601f19601f820116820180604052508101906200082b919062000eee565b6001600160a01b0316610220816001600160a01b031660601b81525050826001600160a01b031663be9a65556040518163ffffffff1660e01b815260040160206040518083038186803b1580156200088257600080fd5b505afa15801562000897573d6000803e3d6000fd5b505050506040513d601f19601f82011682018060405250810190620008bd919062000f60565b6102408181525050336001600160a01b031663a6ce5c0b6040518163ffffffff1660e01b815260040160206040518083038186803b158015620008ff57600080fd5b505afa15801562000914573d6000803e3d6000fd5b505050506040513d601f19601f820116820180604052508101906200093a919062000f60565b61012081815250506000816001600160a01b031663f887ea406040518163ffffffff1660e01b815260040160206040518083038186803b1580156200097e57600080fd5b505afa15801562000993573d6000803e3d6000fd5b505050506040513d601f19601f82011682018060405250810190620009b9919062000eee565b9050620009e281600019866001600160a01b031662000a3060201b62001a86179092919060201c565b62000a0981600019856001600160a01b031662000a3060201b62001a86179092919060201c565b505050505050505050505062000fe4565b6005805460ff191660ff92909216919091179055565b80158062000aba575060408051636eb1769f60e11b81523060048201526001600160a01b03848116602483015291519185169163dd62ed3e91604480820192602092909190829003018186803b15801562000a8a57600080fd5b505afa15801562000a9f573d6000803e3d6000fd5b505050506040513d602081101562000ab657600080fd5b5051155b62000af75760405162461bcd60e51b815260040180806020018281038252603681526020018062005d5d6036913960400191505060405180910390fd5b604080516001600160a01b038416602482015260448082018490528251808303909101815260649091019091526020810180516001600160e01b0390811663095ea7b360e01b1790915262000b4f91859162000b5416565b505050565b600062000bb0826040518060400160405280602081526020017f5361666545524332303a206c6f772d6c6576656c2063616c6c206661696c6564815250856001600160a01b031662000c1060201b62001b99179092919060201c565b80519091501562000b4f5780806020019051602081101562000bd157600080fd5b505162000b4f5760405162461bcd60e51b815260040180806020018281038252602a81526020018062005d33602a913960400191505060405180910390fd5b606062000c21848460008562000c2b565b90505b9392505050565b60608247101562000c6e5760405162461bcd60e51b815260040180806020018281038252602681526020018062005d0d6026913960400191505060405180910390fd5b62000c798562000d92565b62000ccb576040805162461bcd60e51b815260206004820152601d60248201527f416464726573733a2063616c6c20746f206e6f6e2d636f6e7472616374000000604482015290519081900360640190fd5b600080866001600160a01b031685876040518082805190602001908083835b6020831062000d0b5780518252601f19909201916020918201910162000cea565b6001836020036101000a03801982511681845116808217855250505050505090500191505060006040518083038185875af1925050503d806000811462000d6f576040519150601f19603f3d011682016040523d82523d6000602084013e62000d74565b606091505b50909250905062000d8782828662000d98565b979650505050505050565b3b151590565b6060831562000da957508162000c24565b82511562000dba5782518084602001fd5b8160405162461bcd60e51b81526004018080602001828103825283818151815260200191508051906020019080838360005b8381101562000e0657818101518382015260200162000dec565b50505050905090810190601f16801562000e345780820380516001836020036101000a031916815260200191505b509250505060405180910390fd5b828054600181600116156101000203166002900490600052602060002090601f01602090048101928262000e7a576000855562000ec5565b82601f1062000e9557805160ff191683800117855562000ec5565b8280016001018555821562000ec5579182015b8281111562000ec557825182559160200191906001019062000ea8565b5062000ed392915062000ed7565b5090565b5b8082111562000ed3576000815560010162000ed8565b60006020828403121562000f00578081fd5b815162000c248162000fcb565b60008060006060848603121562000f22578182fd5b835162000f2f8162000fcb565b602085015190935062000f428162000fcb565b604085015190925062000f558162000fcb565b809150509250925092565b60006020828403121562000f72578081fd5b5051919050565b60208082526012908201527124a72b20a624a22faa27a5a2a72fa820a4a960711b604082015260600190565b6020808252600c908201526b5a45524f5f4144445245535360a01b604082015260600190565b6001600160a01b038116811462000fe157600080fd5b50565b60805160a05160c05160601c60e0516101005160601c610120516101405160601c6101605160601c6101805160601c6101a0516101c05160601c6101e05160601c6102005160601c6102205160601c61024051614bbb6200115260003980611ca95280612dfd52508061144e528061151a5280612d0c52508061084652806109fa5280610e1152806119245280611be25280611f7b528061207f52806122d15280612e2a5280612ebe5280613e9c52508061164f5280612bde52806131a852806132565280613d0b5250806136f65280613c52525080613c305250806107f152806115e352806124a652806126355280612b4e5250806116195280611a565280612b8b5250806136c9525080610569528061147b5280612d3952508061167f5280612ac2525080610c47528061177d5250806111815280611a325280611f115280613c035250806118865280611c885280612ddc5280612f5b5280613c745250806112d35250614bbb6000f3fe608060405234801561001057600080fd5b50600436106102745760003560e01c806374b504b911610151578063ce56c454116100c3578063e184c9be11610087578063e184c9be14610516578063f04bcd7c1461051e578063f85c9ce214610531578063f887ea4014610544578063fc0c546a1461054c578063ff22311c1461055457610274565b8063ce56c454146104c2578063d02fba51146104d5578063d2e6d1c3146104e8578063d505accf146104f0578063dd62ed3e1461050357610274565b80638f373bf3116101155780638f373bf31461047157806395d89b4114610479578063a457c2d714610481578063a6f319bb14610494578063a9059cbb146104a7578063be9a6555146104ba57610274565b806374b504b91461041d57806376de56df146104305780637ecebe0014610443578063834c29551461045657806389abe8be1461046957610274565b806330adf81f116101ea5780633ccdbb28116101ae5780633ccdbb28146103ca578063437e5b92146103df57806348fa6ede146103e7578063541a7ca6146103fa57806362c7fa761461040257806370a082311461040a57610274565b806330adf81f1461038a578063313ce5671461039257806335142c8c146103a75780633644e515146103af57806339509351146103b757610274565b80630d9b13d91161023c5780630d9b13d9146103065780630dd2cbb91461031b5780631569f6a41461033b57806318160ddd1461035c57806323b872dd1461036457806327433e9e1461037757610274565b806304ce07f11461027957806306fdde03146102975780630902f1ac146102ac578063095ea7b3146102c55780630aa725f2146102e5575b600080fd5b610281610567565b60405161028e9190614526565b60405180910390f35b61029f61058b565b60405161028e919061456d565b6102b4610621565b60405161028e9594939291906148f0565b6102d86102d336600461421e565b610660565b60405161028e919061451b565b6102f86102f33660046142fe565b61067e565b60405161028e929190614500565b61030e6107ef565b60405161028e91906144de565b61032e610329366004614164565b610813565b60405161028e91906144f2565b61034e610349366004614249565b61099f565b60405161028e9291906148c6565b610281610b63565b6102d86103723660046140e2565b610b69565b6102816103853660046143b4565b610bf1565b610281610c08565b61039a610c2c565b60405161028e9190614913565b6102d8610c35565b610281610c45565b6102d86103c536600461421e565b610c69565b6103dd6103d8366004614373565b610cb7565b005b610281610dc7565b6102f86103f5366004614164565b610dcd565b610281610f15565b610281610f1b565b610281610418366004614072565b610f21565b61028161042b36600461446c565b610f40565b61028161043e3660046143b4565b610f4e565b610281610451366004614072565b610f5c565b61032e6104643660046142c4565b610f6e565b610281611097565b61028161109d565b61029f6110a3565b6102d861048f36600461421e565b611104565b6102f86104a2366004614290565b61116c565b6102d86104b536600461421e565b6112bd565b6102816112d1565b6103dd6104d0366004614448565b6112f5565b6103dd6104e3366004614072565b611434565b61030e61167d565b6103dd6104fe3660046141a9565b6116a1565b6102816105113660046140aa565b611859565b610281611884565b61028161052c366004614072565b6118a8565b61034e61053f366004614249565b6118c9565b61030e611a30565b61030e611a54565b6102816105623660046143f7565b611a78565b7f000000000000000000000000000000000000000000000000000000000000000081565b60038054604080516020601f60026000196101006001881615020190951694909404938401819004810282018101909252828152606093909290918301828280156106175780601f106105ec57610100808354040283529160200191610617565b820191906000526020600020905b8154815290600101906020018083116105fa57829003601f168201915b5050505050905090565b6000806000806000610631611bb0565b929750955093509150610642611bdb565b156106565761064f611c81565b5090945091505b4390509091929394565b600061067461066d611de5565b8484611de9565b5060015b92915050565b610686613fbc565b60006106926000611ed5565b61069a611f77565b60008060006106a7611bb0565b50919450925090506000806106c6856106c08d8761213c565b90612195565b905089811161071857878110156106f85760405162461bcd60e51b81526004016106ef9061470a565b60405180910390fd5b8a9150610711856106c061070a610b63565b8e9061213c565b9550610763565b610726846106c08c8861213c565b9150888210156107485760405162461bcd60e51b81526004016106ef906146da565b5088610760846106c0610759610b63565b8d9061213c565b95505b61076d85836121fc565b875183905287516000602090910152945061078884826121fc565b6020808901805184905251600091015293506107a5858585612256565b6107ad6122cf565b6107b78c87612377565b600080516020614a2e8339815191528584866040516107d8939291906148da565b60405180910390a150505050509550959350505050565b7f000000000000000000000000000000000000000000000000000000000000000081565b61081b613fbc565b6108256000611ed5565b61082d611f77565b610835612467565b600061084085612486565b905060007f00000000000000000000000000000000000000000000000000000000000000006001600160a01b03166354cf2aeb6040518163ffffffff1660e01b815260040160206040518083038186803b15801561089d57600080fd5b505afa1580156108b1573d6000803e3d6000fd5b505050506040513d601f19601f820116820180604052508101906108d59190614430565b905060006108e1610b63565b905060006108f18483898661251b565b9050858110156109135760405162461bcd60e51b81526004016106ef90614685565b602084015161092290826125c0565b602085810191909152855182905285516001910152610941848961261d565b6109496122cf565b61095389886126ab565b6000806000610960611bb0565b50925092509250600080516020614a2e833981519152838284604051610988939291906148da565b60405180910390a150505050505050949350505050565b60006109a9613fbc565b6109b36000611ed5565b6109bb611bdb565b156109d8576109c8611f77565b6109d0612467565b6109d86122cf565b60006109e387612486565b905060006109f086612486565b9050610a8e8282877f00000000000000000000000000000000000000000000000000000000000000006001600160a01b03166354cf2aeb6040518163ffffffff1660e01b815260040160206040518083038186803b158015610a5157600080fd5b505afa158015610a65573d6000803e3d6000fd5b505050506040513d601f19601f82011682018060405250810190610a899190614430565b6127a7565b935086841115610ab05760405162461bcd60e51b81526004016106ef906145c0565b6020820151610abf90856121fc565b602080840191909152810151610ad590866125c0565b6020820152610ae4828961261d565b610aee818761261d565b825184905282516000602090910152848360015b602090810291909101519190915283810151600191015260008080610b25611bb0565b50925092509250600080516020614a2e833981519152838284604051610b4d939291906148da565b60405180910390a1505050505094509492505050565b60025490565b6000610b7684848461283d565b610be684610b82611de5565b610be185604051806060016040528060288152602001614a6f602891396001600160a01b038a16600090815260016020526040812090610bc0611de5565b6001600160a01b031681526020810191909152604001600020549190612998565b611de9565b5060015b9392505050565b6000610bff85858585612a2f565b95945050505050565b7f6e71edae12b1b97f4d1f60370fef10105fa2faae0126114a169c64845d6126c981565b60055460ff1690565b600754600160a01b900460ff1681565b7f000000000000000000000000000000000000000000000000000000000000000081565b6000610674610c76611de5565b84610be18560016000610c87611de5565b6001600160a01b03908116825260208083019390935260409182016000908120918c1681529252902054906121fc565b610cbf612abe565b6001600160a01b0316336001600160a01b031614610d16576040805162461bcd60e51b815260206004820152600f60248201526e4f4e4c595f474f5645524e414e434560881b604482015290519081900360640190fd5b610d1f83612b4a565b610d64576040805162461bcd60e51b81526020600482015260116024820152701513d2d15397d393d517d0531313d5d151607a1b604482015290519081900360640190fd5b610d786001600160a01b0384168284612c18565b604080516001600160a01b0380861682526020820185905283168183015290517f72cb8a894ddb372ceec3d2a7648d86f17d5a15caae0e986c53109b8a9a9385e69181900360600190a1505050565b600d5481565b610dd5613fbc565b6000610de16000611ed5565b610de9611f77565b610df1612467565b6000610dfc86612486565b90506000610e08610b63565b9050610ea686837f00000000000000000000000000000000000000000000000000000000000000006001600160a01b03166354cf2aeb6040518163ffffffff1660e01b815260040160206040518083038186803b158015610e6857600080fd5b505afa158015610e7c573d6000803e3d6000fd5b505050506040513d601f19601f82011682018060405250810190610ea09190614430565b84612c6a565b925084831015610ec85760405162461bcd60e51b81526004016106ef906147c0565b6020820151610ed790876121fc565b602083810191909152845187905284516000910152610ef6828861261d565b610efe6122cf565b610f088884612377565b6000806000610b25611bb0565b60085481565b60105481565b6001600160a01b0381166000908152602081905260409020545b919050565b6000610bff85858585612c6a565b6000610bff858585856127a7565b60066020526000908152604090205481565b610f76613fbc565b610f806001611ed5565b610f88611f77565b6000610f92610b63565b90506000806000610fa1611bb0565b50919450925090506000610fb9856106c08b8761213c565b90506000610fcb866106c08c8761213c565b905087811015610fed5760405162461bcd60e51b81526004016106ef90614685565b8882101561100d5760405162461bcd60e51b81526004016106ef906147eb565b61101785836125c0565b945061102384826125c0565b8751839052875160016020918201819052818a0180518590525190910152935061104e858585612256565b6110566122cf565b6110608b8b6126ab565b600080516020614a2e833981519152858486604051611081939291906148da565b60405180910390a1505050505050949350505050565b600c5481565b60095481565b60048054604080516020601f60026000196101006001881615020190951694909404938401819004810282018101909252828152606093909290918301828280156106175780601f106105ec57610100808354040283529160200191610617565b6000610674611111611de5565b84610be185604051806060016040528060258152602001614b61602591396001600061113b611de5565b6001600160a01b03908116825260208083019390935260409182016000908120918d16815292529020549190612998565b611174613fbc565b6000336001600160a01b037f000000000000000000000000000000000000000000000000000000000000000016146111be5760405162461bcd60e51b81526004016106ef906146b5565b6111c6612cf2565b600754600160a01b900460ff16156111f05760405162461bcd60e51b81526004016106ef90614792565b6111f8612dd5565b6112088484648000000000612256565b6112106122cf565b604051600080516020614a2e833981519152906112379086906480000000009087906148da565b60405180910390a1611247612f87565b6112656103e861125f61125a878761213c565b612f94565b906125c0565b905061127460016103e8612377565b61127e8582612377565b8151939093528051600060209182018190528183018051949094529251019190915243600d556007805460ff60a01b1916600160a01b17905592909150565b60006106746112ca611de5565b848461283d565b7f000000000000000000000000000000000000000000000000000000000000000081565b6112fd612abe565b6001600160a01b0316336001600160a01b031614611354576040805162461bcd60e51b815260206004820152600f60248201526e4f4e4c595f474f5645524e414e434560881b604482015290519081900360640190fd5b6040516000906001600160a01b0383169084908381818185875af1925050503d806000811461139f576040519150601f19603f3d011682016040523d82523d6000602084013e6113a4565b606091505b50509050806113ec576040805162461bcd60e51b815260206004820152600f60248201526e15d2551211149055d7d19052531151608a1b604482015290519081900360640190fd5b604080518481526001600160a01b038416602082015281517fec47e7ed86c86774d1a72c19f35c639911393fe7c1a34031fdbd260890da90de929181900390910190a1505050565b6040516333a2ae8d60e11b81526000906001600160a01b037f000000000000000000000000000000000000000000000000000000000000000016906367455d1a906114a5907f000000000000000000000000000000000000000000000000000000000000000090309060040161452f565b6040805180830381600087803b1580156114be57600080fd5b505af11580156114d2573d6000803e3d6000fd5b505050506040513d601f19601f820116820180604052508101906114f69190614341565b915050806115165760405162461bcd60e51b81526004016106ef906145e6565b60007f00000000000000000000000000000000000000000000000000000000000000006001600160a01b03166331c7f53a6040518163ffffffff1660e01b815260040160606040518083038186803b15801561157157600080fd5b505afa158015611585573d6000803e3d6000fd5b505050506040513d601f19601f820116820180604052508101906115a99190614122565b5090915050336001600160a01b038216146115d65760405162461bcd60e51b81526004016106ef90614818565b61160c6001600160a01b037f00000000000000000000000000000000000000000000000000000000000000001684600019611a86565b6116426001600160a01b037f00000000000000000000000000000000000000000000000000000000000000001684600019611a86565b6116786001600160a01b037f00000000000000000000000000000000000000000000000000000000000000001684600019611a86565b505050565b7f000000000000000000000000000000000000000000000000000000000000000081565b428410156116e7576040805162461bcd60e51b815260206004820152600e60248201526d14115493525517d156141254915160921b604482015290519081900360640190fd5b6001600160a01b03808816600081815260066020908152604080832080546001810190915581517f6e71edae12b1b97f4d1f60370fef10105fa2faae0126114a169c64845d6126c98185015280830195909552948b166060850152608084018a905260a084019490945260c08084018990528451808503909101815260e08401855280519082012061190160f01b6101008501527f0000000000000000000000000000000000000000000000000000000000000000610102850152610122808501919091528451808503909101815261014290930190935281519190920120906117d382868686612fe5565b90506001600160a01b038116158015906117fe5750886001600160a01b0316816001600160a01b0316145b611843576040805162461bcd60e51b8152602060048201526011602482015270494e56414c49445f5349474e415455524560781b604482015290519081900360640190fd5b61184e898989611de9565b505050505050505050565b6001600160a01b03918216600090815260016020908152604080832093909416825291909152205490565b7f000000000000000000000000000000000000000000000000000000000000000081565b60006118b46001611ed5565b6118bd8261315a565b9050610f3b8282613198565b60006118d3613fbc565b6118dd6000611ed5565b6118e5611bdb565b15611902576118f2611f77565b6118fa612467565b6119026122cf565b600061190d87612486565b9050600061191a86612486565b90506119b88282897f00000000000000000000000000000000000000000000000000000000000000006001600160a01b03166354cf2aeb6040518163ffffffff1660e01b815260040160206040518083038186803b15801561197b57600080fd5b505afa15801561198f573d6000803e3d6000fd5b505050506040513d601f19601f820116820180604052508101906119b39190614430565b612a2f565b9350848410156119da5760405162461bcd60e51b81526004016106ef9061489e565b60208201516119e990886121fc565b6020808401919091528101516119ff90856125c0565b6020820152611a0e828961261d565b611a18818761261d565b82518790528251600060209091015283836001610b02565b7f000000000000000000000000000000000000000000000000000000000000000081565b7f000000000000000000000000000000000000000000000000000000000000000081565b6000610bff8585858561251b565b801580611b0c575060408051636eb1769f60e11b81523060048201526001600160a01b03848116602483015291519185169163dd62ed3e91604480820192602092909190829003018186803b158015611ade57600080fd5b505afa158015611af2573d6000803e3d6000fd5b505050506040513d6020811015611b0857600080fd5b5051155b611b475760405162461bcd60e51b8152600401808060200182810382526036815260200180614b2b6036913960400191505060405180910390fd5b604080516001600160a01b038416602482015260448082018490528251808303909101815260649091019091526020810180516001600160e01b031663095ea7b360e01b17905261167890849061327d565b6060611ba8848460008561332e565b949350505050565b600e54609481901c91602882901c60016001606c1b03169164ffffffffff1690600160281b82900390565b6000611c7a7f00000000000000000000000000000000000000000000000000000000000000006001600160a01b031663d8168c486040518163ffffffff1660e01b815260040160206040518083038186803b158015611c3957600080fd5b505afa158015611c4d573d6000803e3d6000fd5b505050506040513d601f19601f82011682018060405250810190611c719190614430565b600d54906121fc565b4311905090565b60008080427f00000000000000000000000000000000000000000000000000000000000000007f00000000000000000000000000000000000000000000000000000000000000008082038480611cd5611bb0565b9350935050506000868610611ced5750858503611cf1565b5060005b6000611d06600160281b838102908702613489565b9050611d42611d36611d2c600160281b611d26650323d70a3d70866134ab565b906121fc565b600160281b6134ce565b65016bb2b81a52613489565b98506000611d528a600f54613489565b9050600160281b811115611d785760405162461bcd60e51b81526004016106ef9061463a565b6000611d9a611d8787876134ab565b611d95600160281b856125c0565b6134ab565b90506000611dac86611d26858a6134ab565b90506000611dba8383613489565b9050611dc688826125c0565b9e50611dd287826121fc565b9d50505050505050505050505050909192565b3390565b6001600160a01b038316611e2e5760405162461bcd60e51b8152600401808060200182810382526024815260200180614add6024913960400191505060405180910390fd5b6001600160a01b038216611e735760405162461bcd60e51b815260040180806020018281038252602281526020018061497c6022913960400191505060405180910390fd5b6001600160a01b03808416600081815260016020908152604080832094871680845294825291829020859055815185815291517f8c5be1e5ebec7d5bd14f71427d1e84f3dd0314c0f7b2291e5b200ac8c7c3b9259281900390910190a3505050565b611edd612cf2565b600754600160a01b900460ff16611f065760405162461bcd60e51b81526004016106ef90614768565b336001600160a01b037f00000000000000000000000000000000000000000000000000000000000000001614611f4e5760405162461bcd60e51b81526004016106ef906146b5565b80611f74576010544210611f745760405162461bcd60e51b81526004016106ef9061465e565b50565b60007f00000000000000000000000000000000000000000000000000000000000000006001600160a01b031663b06459b56040518163ffffffff1660e01b815260040160206040518083038186803b158015611fd257600080fd5b505afa158015611fe6573d6000803e3d6000fd5b505050506040513d601f19601f8201168201806040525081019061200a9190614430565b600c54909150811561212c578015612127576000612026613530565b90508181111561212557600061204d61203f83856125c0565b612047610b63565b9061213c565b9050600061206b84611d26876106c087612047600160281b846125c0565b9050600081838161207857fe5b04905060007f00000000000000000000000000000000000000000000000000000000000000006001600160a01b03166361d027b36040518163ffffffff1660e01b815260040160206040518083038186803b1580156120d657600080fd5b505afa1580156120ea573d6000803e3d6000fd5b505050506040513d601f19601f8201168201806040525081019061210e919061408e565b90508115612120576121208183612377565b505050505b505b612138565b8015612138576000600c555b5050565b60008261214b57506000610678565b8282028284828161215857fe5b0414610bea5760405162461bcd60e51b8152600401808060200182810382526021815260200180614a4e6021913960400191505060405180910390fd5b60008082116121eb576040805162461bcd60e51b815260206004820152601a60248201527f536166654d6174683a206469766973696f6e206279207a65726f000000000000604482015290519081900360640190fd5b8183816121f457fe5b049392505050565b600082820183811015610bea576040805162461bcd60e51b815260206004820152601b60248201527f536166654d6174683a206164646974696f6e206f766572666c6f770000000000604482015290519081900360640190fd5b82600010801561226d575060016001606c1b038311155b6122895760405162461bcd60e51b81526004016106ef90614874565b8160001080156122a0575060016001606c1b038211155b6122bc5760405162461bcd60e51b81526004016106ef9061460d565b60949290921b60289190911b1717600e55565b7f00000000000000000000000000000000000000000000000000000000000000006001600160a01b031663b06459b56040518163ffffffff1660e01b815260040160206040518083038186803b15801561232857600080fd5b505afa15801561233c573d6000803e3d6000fd5b505050506040513d601f19601f820116820180604052508101906123609190614430565b61236957612375565b612371613530565b600c555b565b6001600160a01b0382166123d2576040805162461bcd60e51b815260206004820152601f60248201527f45524332303a206d696e7420746f20746865207a65726f206164647265737300604482015290519081900360640190fd5b6123de60008383613586565b6002546123eb90826121fc565b6002556001600160a01b03821660009081526020819052604090205461241190826121fc565b6001600160a01b0383166000818152602081815260408083209490945583518581529351929391927fddf252ad1be2c89b69c2b068fc378daa952ba7f163c4a11628f55a4df523b3ef9281900390910190a35050565b61246f611bdb565b61247857612375565b6124806135c9565b43600d55565b61248e613fe9565b60008060008061249c611bb0565b93509350935093507f00000000000000000000000000000000000000000000000000000000000000006001600160a01b0316866001600160a01b031614156124fa576040518060400160405280838152602001858152509450612512565b60405180604001604052808281526020018481525094505b50505050919050565b83516000908161252b86866125c0565b905060006125398288613489565b905060006125548261254f600160281b87613489565b6135fd565b90506000612566828b602001516134ab565b90506000612581828c602001516125c090919063ffffffff16565b9050600061259c612596600160281b896125c0565b8a6134ab565b90506125b082611d95600160281b846125c0565b9c9b505050505050505050505050565b600082821115612617576040805162461bcd60e51b815260206004820152601e60248201527f536166654d6174683a207375627472616374696f6e206f766572666c6f770000604482015290519081900360640190fd5b50900390565b60008060008061262b611bb0565b93509350935093507f00000000000000000000000000000000000000000000000000000000000000006001600160a01b0316856001600160a01b0316141561267d578551602087015194509150612698565b50845160208601519250612695600160281b826125c0565b91505b6126a3848484612256565b505050505050565b6001600160a01b0382166126f05760405162461bcd60e51b8152600401808060200182810382526021815260200180614a976021913960400191505060405180910390fd5b6126fc82600083613586565b6127398160405180606001604052806022815260200161495a602291396001600160a01b0385166000908152602081905260409020549190612998565b6001600160a01b03831660009081526020819052604090205560025461275f90826125c0565b6002556040805182815290516000916001600160a01b038516917fddf252ad1be2c89b69c2b068fc378daa952ba7f163c4a11628f55a4df523b3ef9181900360200190a35050565b6000806127bc85600001518760000151613489565b905060006127d78587602001516125c090919063ffffffff16565b905060006127e9876020015183613489565b905060006127f782856135fd565b905061280781600160281b6125c0565b9050612817600160281b876125c0565b945061283061282a8a60200151836134ab565b86613489565b9998505050505050505050565b6001600160a01b0383166128825760405162461bcd60e51b8152600401808060200182810382526025815260200180614ab86025913960400191505060405180910390fd5b6001600160a01b0382166128c75760405162461bcd60e51b81526004018080602001828103825260238152602001806149376023913960400191505060405180910390fd5b6128d2838383613586565b61290f8160405180606001604052806026815260200161499e602691396001600160a01b0386166000908152602081905260409020549190612998565b6001600160a01b03808516600090815260208190526040808220939093559084168152205461293e90826121fc565b6001600160a01b038084166000818152602081815260409182902094909455805185815290519193928716927fddf252ad1be2c89b69c2b068fc378daa952ba7f163c4a11628f55a4df523b3ef92918290030190a3505050565b60008184841115612a275760405162461bcd60e51b81526004018080602001828103825283818151815260200191508051906020019080838360005b838110156129ec5781810151838201526020016129d4565b50505050905090810190601f168015612a195780820380516001836020036101000a031916815260200191505b509250505060405180910390fd5b505050900390565b600080612a4486600001518660000151613489565b90506000612a56600160281b856125c0565b9050612a6285826134ab565b6020880151909150600090612a8090612a7b81856121fc565b613489565b90506000612a8e82856135fd565b90506000612aa0600160281b836125c0565b9050612ab08960200151826134ab565b9a9950505050505050505050565b60007f00000000000000000000000000000000000000000000000000000000000000006001600160a01b0316635aa6e6756040518163ffffffff1660e01b815260040160206040518083038186803b158015612b1957600080fd5b505afa158015612b2d573d6000803e3d6000fd5b505050506040513d6020811015612b4357600080fd5b5051905090565b60007f00000000000000000000000000000000000000000000000000000000000000006001600160a01b0316826001600160a01b031614158015612bc057507f00000000000000000000000000000000000000000000000000000000000000006001600160a01b0316826001600160a01b031614155b8015612bd557506001600160a01b0382163014155b801561067857507f00000000000000000000000000000000000000000000000000000000000000006001600160a01b0316826001600160a01b0316141592915050565b604080516001600160a01b038416602482015260448082018490528251808303909101815260649091019091526020810180516001600160e01b031663a9059cbb60e01b17905261167890849061327d565b825160009081612c87612c81600160281b846125c0565b866134ab565b90506000612c9d88611d95600160281b856125c0565b90506000612cb88289602001516121fc90919063ffffffff16565b90506000612cca828a60200151613489565b90506000612cd882876135fd565b90506000612ce6828a6134ab565b90506125b0818a6125c0565b6040516333a2ae8d60e11b81526000906001600160a01b037f000000000000000000000000000000000000000000000000000000000000000016906367455d1a90612d63907f000000000000000000000000000000000000000000000000000000000000000090309060040161452f565b6040805180830381600087803b158015612d7c57600080fd5b505af1158015612d90573d6000803e3d6000fd5b505050506040513d601f19601f82011682018060405250810190612db49190614341565b5090508015611f745760405162461bcd60e51b81526004016106ef90614741565b6000612e217f00000000000000000000000000000000000000000000000000000000000000007f00000000000000000000000000000000000000000000000000000000000000006125c0565b90506000612f547f00000000000000000000000000000000000000000000000000000000000000006001600160a01b03166338c143f46040518163ffffffff1660e01b815260040160206040518083038186803b158015612e8157600080fd5b505afa158015612e95573d6000803e3d6000fd5b505050506040513d601f19601f82011682018060405250810190612eb99190614430565b6106c07f00000000000000000000000000000000000000000000000000000000000000006001600160a01b031663ff845ced6040518163ffffffff1660e01b815260040160206040518083038186803b158015612f1557600080fd5b505afa158015612f29573d6000803e3d6000fd5b505050506040513d601f19601f82011682018060405250810190612f4d9190614430565b859061213c565b9050612f807f0000000000000000000000000000000000000000000000000000000000000000826125c0565b6010555050565b612f8f6136af565b601155565b60006003821115612fd7575080600160028204015b81811015612fd157809150600281828581612fc057fe5b040181612fc957fe5b049050612fa9565b50610f3b565b8115610f3b57506001919050565b60007f7fffffffffffffffffffffffffffffff5d576e7357a4501ddfe92f46681b20a08211156130465760405162461bcd60e51b81526004018080602001828103825260228152602001806149c46022913960400191505060405180910390fd5b8360ff16601b148061305b57508360ff16601c145b6130965760405162461bcd60e51b8152600401808060200182810382526022815260200180614a0c6022913960400191505060405180910390fd5b600060018686868660405160008152602001604052604051808581526020018460ff1681526020018381526020018281526020019450505050506020604051602081039080840390855afa1580156130f2573d6000803e3d6000fd5b5050604051601f1901519150506001600160a01b038116610bff576040805162461bcd60e51b815260206004820152601860248201527f45434453413a20696e76616c6964207369676e61747572650000000000000000604482015290519081900360640190fd5b600061316582613773565b506001600160a01b0381166000908152600b602052604081208054919055600954613190908261389e565b600955919050565b806131a257612138565b613247817f00000000000000000000000000000000000000000000000000000000000000006001600160a01b03166370a08231306040518263ffffffff1660e01b81526004016131f291906144de565b60206040518083038186803b15801561320a57600080fd5b505afa15801561321e573d6000803e3d6000fd5b505050506040513d601f19601f820116820180604052508101906132429190614430565b6138af565b90506121386001600160a01b037f0000000000000000000000000000000000000000000000000000000000000000168383612c18565b60006132d2826040518060400160405280602081526020017f5361666545524332303a206c6f772d6c6576656c2063616c6c206661696c6564815250856001600160a01b0316611b999092919063ffffffff16565b805190915015611678578080602001905160208110156132f157600080fd5b50516116785760405162461bcd60e51b815260040180806020018281038252602a815260200180614b01602a913960400191505060405180910390fd5b60608247101561336f5760405162461bcd60e51b81526004018080602001828103825260268152602001806149e66026913960400191505060405180910390fd5b613378856138c5565b6133c9576040805162461bcd60e51b815260206004820152601d60248201527f416464726573733a2063616c6c20746f206e6f6e2d636f6e7472616374000000604482015290519081900360640190fd5b600080866001600160a01b031685876040518082805190602001908083835b602083106134075780518252601f1990920191602091820191016133e8565b6001836020036101000a03801982511681845116808217855250505050505090500191505060006040518083038185875af1925050503d8060008114613469576040519150601f19603f3d011682016040523d82523d6000602084013e61346e565b606091505b509150915061347e8282866138cb565b979650505050505050565b6000610bea826106c06134a086600160281b61213c565b6002865b04906121fc565b6000610bea600160281b6106c06134c2868661213c565b6002600160281b6134a4565b6000690177c17eb2ae5edd211c69021e19e0c9bab2400000826134f18686613931565b90506134fd8382613a38565b1561351a5760405162461bcd60e51b81526004016106ef9061463a565b818184028161352557fe5b049695505050505050565b6000806000806000613540611bb0565b935093509350935061357d61357861356061355a86613a5d565b846135fd565b61357261356c88613a5d565b866135fd565b906134ab565b613a66565b94505050505090565b613591838383613a70565b613599612cf2565b6001600160a01b038316156135b1576135b183613773565b6001600160a01b038216156116785761167882613773565b6000806135d4611bb0565b5050915091506000806135e5611c81565b92505091506135f5848484612256565b600f55505050565b60008161360f5750600160281b610678565b8261361c57506000610678565b600061362783613b1d565b905080830360006136408661363b84613a66565b613b27565b90506000600160281b87101561368257600061366785611d95611d2c600160281b8c613489565b905061367a600160281b612a7b83613b7a565b9150506136a5565b600061369685611d958a600160281b6134ce565b90506136a181613b7a565b9150505b61347e82826134ab565b60405163d15e005360e01b81526000906001600160a01b037f0000000000000000000000000000000000000000000000000000000000000000169063d15e00539061371e907f0000000000000000000000000000000000000000000000000000000000000000906004016144de565b60206040518083038186803b15801561373657600080fd5b505afa15801561374a573d6000803e3d6000fd5b505050506040513d601f19601f8201168201806040525081019061376e9190614430565b905090565b61377b613bdb565b6001600160a01b03811660009081526012602052604081205460115490916137a284610f21565b600854909150836137e0576001600160a01b038516600090815260126020908152604080832095909555600a9052929092209190915550611f749050565b6001600160a01b0385166000908152600a60205260408120546138149061380d9087906106c0908861213c565b839061389e565b9050600061382f68056bc75e2d631000006106c0868561213c565b6001600160a01b0388166000908152600b6020526040902054909150613861908290611d269089906106c0908a61213c565b6001600160a01b0388166000908152600b60209081526040808320939093556012815282822097909755600a909652909420919091555050505050565b600081831015612617576000610bea565b60008183106138be5781610bea565b5090919050565b3b151590565b606083156138da575081610bea565b8251156138ea5782518084602001fd5b60405162461bcd60e51b81526020600482018181528451602484015284518593919283926044019190850190808383600083156129ec5781810151838201526020016129d4565b60008082841115613949576139468484613de7565b90505b600160c81b600160281b820211156139735760405162461bcd60e51b81526004016106ef9061463a565b61398184600160281b613a38565b1561399e5760405162461bcd60e51b81526004016106ef9061463a565b6139ac81600160281b613a38565b156139c95760405162461bcd60e51b81526004016106ef9061463a565b6139d66001821b84613a38565b156139f35760405162461bcd60e51b81526004016106ef9061463a565b600083821b600160281b860281613a0657fe5b0490506000613a1482613e1a565b9050600160c81b811115613a2457fe5b600160281b92909202909101949350505050565b600081613a4757506000610678565b828283850281613a5357fe5b0414159392505050565b600160281b0290565b600160281b900490565b6001600160a01b038216301415613ac7576040805162461bcd60e51b815260206004820152601660248201527514d1539117d513d7d513d2d15397d0d3d395149050d560521b604482015290519081900360640190fd5b826001600160a01b0316826001600160a01b03161415611678576040805162461bcd60e51b815260206004820152600c60248201526b29a2a7222faa27afa9a2a62360a11b604482015290519081900360640190fd5b64ffffffffff1690565b60008060028306613b3c57600160281b613b3e565b835b90506002830492505b8215610bea57613b5784856134ab565b93506002830615613b6f57613b6c81856134ab565b90505b600283049250613b47565b600080600160281b815b91810191613b9c82611d9587612a7b60018601613a5d565b915081613ba857613bd2565b806101f41415613bca5760405162461bcd60e51b81526004016106ef90614847565b600101613b84565b50909392505050565b613be3613e98565b613bec57612375565b6040516304946b9f60e21b81526001600160a01b037f00000000000000000000000000000000000000000000000000000000000000001690631251ae7c90613c9e907f0000000000000000000000000000000000000000000000000000000000000000907f0000000000000000000000000000000000000000000000000000000000000000907f0000000000000000000000000000000000000000000000000000000000000000903090600401614546565b602060405180830381600087803b158015613cb857600080fd5b505af1158015613ccc573d6000803e3d6000fd5b505050506040513d601f19601f82011682018060405250810190613cf09190614430565b506040516370a0823160e01b81526000906001600160a01b037f000000000000000000000000000000000000000000000000000000000000000016906370a0823190613d409030906004016144de565b60206040518083038186803b158015613d5857600080fd5b505afa158015613d6c573d6000803e3d6000fd5b505050506040513d601f19601f82011682018060405250810190613d909190614430565b9050600080613d9e83613f39565b915091506000613dac610b63565b15613dd257613dcf613dbc610b63565b6106c08468056bc75e2d6310000061213c565b90505b613ddc83826121fc565b600855505050600955565b60008080838581613df457fe5b0490505b8015613e0e576001919091019060029004613df8565b50600019019392505050565b600080600160281b6502000000000081808610801590613e3957508186105b613e555760405162461bcd60e51b81526004016106ef9061463a565b60285b8015613e8d578387880281613e6957fe5b049650600282049150828710613e8457600287049650938101935b60001901613e58565b509295945050505050565b60007f00000000000000000000000000000000000000000000000000000000000000006001600160a01b03166399c8054f6040518163ffffffff1660e01b815260040160206040518083038186803b158015613ef357600080fd5b505afa158015613f07573d6000803e3d6000fd5b505050506040513d601f19601f82011682018060405250810190613f2b9190614430565b613f33613f9d565b11905090565b6000806000613f466136af565b9050613f636011546106c08360085461213c90919063ffffffff16565b92506000613f826011546106c08460095461213c90919063ffffffff16565b9050613f8e858261389e565b60119290925550919391925050565b600061376e60286001901b61125f601154613fb66136af565b90613489565b60405180604001604052806002905b613fd3614003565b815260200190600190039081613fcb5790505090565b604051806040016040528060008152602001600081525090565b604080518082019091526000808252602082015290565b80518015158114610f3b57600080fd5b60006040828403121561403b578081fd5b6040516040810181811067ffffffffffffffff8211171561405857fe5b604052823581526020928301359281019290925250919050565b600060208284031215614083578081fd5b8135610bea81614921565b60006020828403121561409f578081fd5b8151610bea81614921565b600080604083850312156140bc578081fd5b82356140c781614921565b915060208301356140d781614921565b809150509250929050565b6000806000606084860312156140f6578081fd5b833561410181614921565b9250602084013561411181614921565b929592945050506040919091013590565b600080600060608486031215614136578283fd5b835161414181614921565b602085015190935061415281614921565b80925050604084015190509250925092565b60008060008060808587031215614179578081fd5b843561418481614921565b9350602085013561419481614921565b93969395505050506040820135916060013590565b600080600080600080600060e0888a0312156141c3578283fd5b87356141ce81614921565b965060208801356141de81614921565b95506040880135945060608801359350608088013560ff81168114614201578384fd5b9699959850939692959460a0840135945060c09093013592915050565b60008060408385031215614230578182fd5b823561423b81614921565b946020939093013593505050565b6000806000806080858703121561425e578384fd5b843561426981614921565b935060208501359250604085013561428081614921565b9396929550929360600135925050565b6000806000606084860312156142a4578283fd5b83356142af81614921565b95602085013595506040909401359392505050565b600080600080608085870312156142d9578182fd5b84356142e481614921565b966020860135965060408601359560600135945092505050565b600080600080600060a08688031215614315578283fd5b853561432081614921565b97602087013597506040870135966060810135965060800135945092505050565b60008060408385031215614353578182fd5b61435c8361401a565b915061436a6020840161401a565b90509250929050565b600080600060608486031215614387578081fd5b833561439281614921565b92506020840135915060408401356143a981614921565b809150509250925092565b60008060008060c085870312156143c9578182fd5b6143d3868661402a565b93506143e2866040870161402a565b939693955050505060808201359160a0013590565b60008060008060a0858703121561440c578182fd5b614416868661402a565b966040860135965060608601359560800135945092505050565b600060208284031215614441578081fd5b5051919050565b6000806040838503121561445a578182fd5b8235915060208301356140d781614921565b60008060008060a08587031215614481578182fd5b84359350614492866020870161402a565b93969395505050506060820135916080013590565b8060005b60028110156144d857815180518552602090810151151581860152604090940193909101906001016144ab565b50505050565b6001600160a01b0391909116815260200190565b6080810161067882846144a7565b60a0810161450e82856144a7565b8260808301529392505050565b901515815260200190565b90815260200190565b9182526001600160a01b0316602082015260400190565b9384526001600160a01b039283166020850152604084019190915216606082015260800190565b6000602080835283518082850152825b818110156145995785810183015185820160400152820161457d565b818111156145aa5783604083870101525b50601f01601f1916929092016040019392505050565b6020808252600c908201526b1313d5d7d25397d31253525560a21b604082015260600190565b6020808252600d908201526c4e4f545f454d455247454e435960981b604082015260600190565b6020808252601390820152722a27a5a2a72fa120a620a721a2afa2a92927a960691b604082015260600190565b6020808252600a908201526926a0aa242fa2a92927a960b11b604082015260600190565b6020808252600d908201526c13505492d15517d313d0d2d151609a1b604082015260600190565b602080825260169082015275125394d551919250d251539517d513d2d15397d3d55560521b604082015260600190565b6020808252600b908201526a27a7262cafa927aaaa22a960a91b604082015260600190565b602080825260169082015275125394d551919250d251539517d65517d05353d5539560521b604082015260600190565b60208082526019908201527f494e53554646494349454e545f544f4b454e5f414d4f554e5400000000000000604082015260600190565b6020808252600d908201526c13505492d15517d4105554d151609a1b604082015260600190565b60208082526010908201526f1393d517d093d3d514d514905414115160821b604082015260600190565b6020808252601490820152731053149150511657d093d3d514d514905414115160621b604082015260600190565b602080825260119082015270121251d217d31417d3d55517d312535255607a1b604082015260600190565b602080825260139082015272125394d551919250d251539517d65517d3d555606a1b604082015260600190565b6020808252601590820152742727aa2fa2a6a2a923a2a721acafa420a7222622a960591b604082015260600190565b60208082526013908201527252504f57455f534c4f575f434f4e564552474560681b604082015260600190565b60208082526010908201526f2caa2fa120a620a721a2afa2a92927a960811b604082015260600190565b6020808252600e908201526d121251d217d3d55517d31253525560921b604082015260600190565b82815260a08101610bea60208301846144a7565b9283526020830191909152604082015260600190565b948552602085019390935260408401919091526060830152608082015260a00190565b60ff91909116815260200190565b6001600160a01b0381168114611f7457600080fdfe45524332303a207472616e7366657220746f20746865207a65726f206164647265737345524332303a206275726e20616d6f756e7420657863656564732062616c616e636545524332303a20617070726f766520746f20746865207a65726f206164647265737345524332303a207472616e7366657220616d6f756e7420657863656564732062616c616e636545434453413a20696e76616c6964207369676e6174757265202773272076616c7565416464726573733a20696e73756666696369656e742062616c616e636520666f722063616c6c45434453413a20696e76616c6964207369676e6174757265202776272076616c75659ea8a9dd7d3733c6dd274b7139f05a2bfce1a4bb22f0f7bdc1ccd49c267b858d536166654d6174683a206d756c7469706c69636174696f6e206f766572666c6f7745524332303a207472616e7366657220616d6f756e74206578636565647320616c6c6f77616e636545524332303a206275726e2066726f6d20746865207a65726f206164647265737345524332303a207472616e736665722066726f6d20746865207a65726f206164647265737345524332303a20617070726f76652066726f6d20746865207a65726f20616464726573735361666545524332303a204552433230206f7065726174696f6e20646964206e6f7420737563636565645361666545524332303a20617070726f76652066726f6d206e6f6e2d7a65726f20746f206e6f6e2d7a65726f20616c6c6f77616e636545524332303a2064656372656173656420616c6c6f77616e63652062656c6f77207a65726fa2646970667358221220bac877db9988f32bb3ceb8d5d7235616bd24b5109832d3620faaf05cd902100864736f6c63430007060033416464726573733a20696e73756666696369656e742062616c616e636520666f722063616c6c5361666545524332303a204552433230206f7065726174696f6e20646964206e6f7420737563636565645361666545524332303a20617070726f76652066726f6d206e6f6e2d7a65726f20746f206e6f6e2d7a65726f20616c6c6f77616e6365",
  "linkReferences": {},
  "deployedLinkReferences": {}
}